:100000000C942A000C9447000C9447000C94470071
:100010000C9447000C9447000C9447000C94470044
:100020000C9447000C9447000C9447000C94470034
:100030000C9447000C9447000C9447000C94470024
:100040000C9447000C9447000C9447000C94470014
:100050000C94470011241FBECFE5D4E0DEBFCDBF16
:1000600010E0A0E6B0E0E2E8F2E002C005900D92F8
:10007000A036B107D9F710E0A0E6B0E001C01D92AC
:10008000A036B107E1F70E9449000C943F010C949F
:1000900000002F923F924F925F926F927F928F92C9
:1000A0009F92AF92BF92CF92DF92EF92FF920F9307
:1000B0001F93DF93CF93CDB7DEB766970FB6F89453
:1000C000DEBF0FBECDBF8FEF8ABB87BB84BB81BBBA
:1000D000FE01319686E1DF011D928A95E9F78FE3F3
:1000E00090E09A83898386E090E09C838B838BE504
:1000F00090E09E838D838FE490E098878F8386E6DF
:1001000090E09A8789878DE690E09C878B878DE7C2
:1001100090E09E878D8787E090E0988B8F878FE7B0
:1001200090E09A8B898B8FE690E09C8B8B8B45E0DF
:1001300050E005E0602E712C6C0E7D1E64EC79E0C1
:100140001FE8212EBFE44B2EAEEF3A2EF4E05F2ED7
:10015000E6E08E2E22C08FE882BBB8BBCB010197B0
:10016000F1F78FE482BBA8BBCB010197F1F71BBA73
:1001700018BAE5BAF2BACB010197F1F72F5F3F4FFA
:100180002431310541F73297E017F10721F0A081C2
:1001900020E030E0E0CF4150504057FD10C0FA0160
:1001A000EE0FFF1FEC0FFD1FB181FE017396EE24D1
:1001B000E3942FE2F22E8E0101501040E8CF1BBADB
:1001C00018BA82E085BB8FE182BB80E197E229E12A
:1001D00030E0F9013197F1F70197D9F7D301AE017A
:1001E000415050409DEF992EAA24A3943CC022BABE
:1001F00008BBCB010197F1F742BA18BBCB010197BD
:10020000F1F715BA32BA5BBA88BACB010197F1F7A8
:1002100015BA92BAABBAB8BACB010197F1F715BAD1
:10022000C2BADBBA18BACB010197F1F715BAE2BA34
:10023000FBBA18BACB010197F1F72F5F3F4F24317A
:100240003105A9F632974E175F0731F0108120E093
:1002500030E081ECF82ECBCF12974A175B0719F4E8
:1002600045E050E09CCF0C91FE01739630E3B32E35
:100270002BEFC22E98E8D92E87EFE82EE7CFF8941F
:02028000FFCFAE
:00000001FF
